{
  "_format": "hh-sol-artifact-1",
  "contractName": "Campaign",
  "sourceName": "contracts/Campaign.sol",
  "abi": [
    {
      "inputs": [
        {
          "internalType": "string",
          "name": "campaignTitle",
          "type": "string"
        },
        {
          "internalType": "uint256",
          "name": "comapign_req_amt",
          "type": "uint256"
        },
        {
          "internalType": "string",
          "name": "imURI",
          "type": "string"
        },
        {
          "internalType": "string",
          "name": "campaignStory",
          "type": "string"
        },
        {
          "internalType": "address",
          "name": "campaignOwner",
          "type": "address"
        }
      ],
      "stateMutability": "nonpayable",
      "type": "constructor"
    },
    {
      "anonymous": false,
      "inputs": [
        {
          "indexed": true,
          "internalType": "address",
          "name": "donor",
          "type": "address"
        },
        {
          "indexed": false,
          "internalType": "uint256",
          "name": "amount",
          "type": "uint256"
        },
        {
          "indexed": false,
          "internalType": "uint256",
          "name": "timestamp",
          "type": "uint256"
        }
      ],
      "name": "donated",
      "type": "event"
    },
    {
      "inputs": [],
      "name": "donate",
      "outputs": [],
      "stateMutability": "payable",
      "type": "function"
    },
    {
      "inputs": [],
      "name": "image",
      "outputs": [
        {
          "internalType": "string",
          "name": "",
          "type": "string"
        }
      ],
      "stateMutability": "view",
      "type": "function"
    },
    {
      "inputs": [],
      "name": "owner",
      "outputs": [
        {
          "internalType": "address payable",
          "name": "",
          "type": "address"
        }
      ],
      "stateMutability": "view",
      "type": "function"
    },
    {
      "inputs": [],
      "name": "received_amt",
      "outputs": [
        {
          "internalType": "uint256",
          "name": "",
          "type": "uint256"
        }
      ],
      "stateMutability": "view",
      "type": "function"
    },
    {
      "inputs": [],
      "name": "required_amt",
      "outputs": [
        {
          "internalType": "uint256",
          "name": "",
          "type": "uint256"
        }
      ],
      "stateMutability": "view",
      "type": "function"
    },
    {
      "inputs": [],
      "name": "story",
      "outputs": [
        {
          "internalType": "string",
          "name": "",
          "type": "string"
        }
      ],
      "stateMutability": "view",
      "type": "function"
    },
    {
      "inputs": [],
      "name": "title",
      "outputs": [
        {
          "internalType": "string",
          "name": "",
          "type": "string"
        }
      ],
      "stateMutability": "view",
      "type": "function"
    }
  ],
  "bytecode": "0x60806040523480156200001157600080fd5b5060405162000be538038062000be58339818101604052810190620000379190620003ca565b84600090805190602001906200004f929190620000dd565b508360018190555082600290805190602001906200006f929190620000dd565b50816003908051906020019062000088929190620000dd565b50600060058190555080600460006101000a81548173ffffffffffffffffffffffffffffffffffffffff021916908373ffffffffffffffffffffffffffffffffffffffff160217905550505050505062000514565b828054620000eb90620004de565b90600052602060002090601f0160209004810192826200010f57600085556200015b565b82601f106200012a57805160ff19168380011785556200015b565b828001600101855582156200015b579182015b828111156200015a5782518255916020019190600101906200013d565b5b5090506200016a91906200016e565b5090565b5b80821115620001895760008160009055506001016200016f565b5090565b6000604051905090565b600080fd5b600080fd5b600080fd5b600080fd5b6000601f19601f8301169050919050565b7f4e487b7100000000000000000000000000000000000000000000000000000000600052604160045260246000fd5b620001f682620001ab565b810181811067ffffffffffffffff82111715620002185762000217620001bc565b5b80604052505050565b60006200022d6200018d565b90506200023b8282620001eb565b919050565b600067ffffffffffffffff8211156200025e576200025d620001bc565b5b6200026982620001ab565b9050602081019050919050565b60005b838110156200029657808201518184015260208101905062000279565b83811115620002a6576000848401525b50505050565b6000620002c3620002bd8462000240565b62000221565b905082815260208101848484011115620002e257620002e1620001a6565b5b620002ef84828562000276565b509392505050565b600082601f8301126200030f576200030e620001a1565b5b815162000321848260208601620002ac565b91505092915050565b6000819050919050565b6200033f816200032a565b81146200034b57600080fd5b50565b6000815190506200035f8162000334565b92915050565b600073ffffffffffffffffffffffffffffffffffffffff82169050919050565b6000620003928262000365565b9050919050565b620003a48162000385565b8114620003b057600080fd5b50565b600081519050620003c48162000399565b92915050565b600080600080600060a08688031215620003e957620003e862000197565b5b600086015167ffffffffffffffff8111156200040a57620004096200019c565b5b6200041888828901620002f7565b95505060206200042b888289016200034e565b945050604086015167ffffffffffffffff8111156200044f576200044e6200019c565b5b6200045d88828901620002f7565b935050606086015167ffffffffffffffff8111156200048157620004806200019c565b5b6200048f88828901620002f7565b9250506080620004a288828901620003b3565b9150509295509295909350565b7f4e487b7100000000000000000000000000000000000000000000000000000000600052602260045260246000fd5b60006002820490506001821680620004f757607f821691505b602082108114156200050e576200050d620004af565b5b50919050565b6106c180620005246000396000f3fe6080604052600436106100705760003560e01c806362ab0cd41161004e57806362ab0cd4146100f65780638da5cb5b14610121578063ed88c68e1461014c578063f3ccaac01461015657610070565b80631540c1f41461007557806346c922d1146100a05780634a79d50c146100cb575b600080fd5b34801561008157600080fd5b5061008a610181565b604051610097919061044a565b60405180910390f35b3480156100ac57600080fd5b506100b5610187565b6040516100c291906104fe565b60405180910390f35b3480156100d757600080fd5b506100e0610215565b6040516100ed91906104fe565b60405180910390f35b34801561010257600080fd5b5061010b6102a3565b604051610118919061044a565b60405180910390f35b34801561012d57600080fd5b506101366102a9565b6040516101439190610561565b60405180910390f35b6101546102cf565b005b34801561016257600080fd5b5061016b6103a3565b60405161017891906104fe565b60405180910390f35b60055481565b60038054610194906105ab565b80601f01602080910402602001604051908101604052809291908181526020018280546101c0906105ab565b801561020d5780601f106101e25761010080835404028352916020019161020d565b820191906000526020600020905b8154815290600101906020018083116101f057829003601f168201915b505050505081565b60008054610222906105ab565b80601f016020809104026020016040519081016040528092919081815260200182805461024e906105ab565b801561029b5780601f106102705761010080835404028352916020019161029b565b820191906000526020600020905b81548152906001019060200180831161027e57829003601f168201915b505050505081565b60015481565b600460009054906101000a900473ffffffffffffffffffffffffffffffffffffffff1681565b600460009054906101000a900473ffffffffffffffffffffffffffffffffffffffff1673ffffffffffffffffffffffffffffffffffffffff166108fc349081150290604051600060405180830381858888f19350505050158015610337573d6000803e3d6000fd5b50346005600082825461034a919061060c565b925050819055503373ffffffffffffffffffffffffffffffffffffffff167fe6add99d06d9ad7fc456e746aa162eed6211c5002ef2dacdd67b8d2016822fba3442604051610399929190610662565b60405180910390a2565b600280546103b0906105ab565b80601f01602080910402602001604051908101604052809291908181526020018280546103dc906105ab565b80156104295780601f106103fe57610100808354040283529160200191610429565b820191906000526020600020905b81548152906001019060200180831161040c57829003601f168201915b505050505081565b6000819050919050565b61044481610431565b82525050565b600060208201905061045f600083018461043b565b92915050565b600081519050919050565b600082825260208201905092915050565b60005b8381101561049f578082015181840152602081019050610484565b838111156104ae576000848401525b50505050565b6000601f19601f8301169050919050565b60006104d082610465565b6104da8185610470565b93506104ea818560208601610481565b6104f3816104b4565b840191505092915050565b6000602082019050818103600083015261051881846104c5565b905092915050565b600073ffffffffffffffffffffffffffffffffffffffff82169050919050565b600061054b82610520565b9050919050565b61055b81610540565b82525050565b60006020820190506105766000830184610552565b92915050565b7f4e487b7100000000000000000000000000000000000000000000000000000000600052602260045260246000fd5b600060028204905060018216806105c357607f821691505b602082108114156105d7576105d661057c565b5b50919050565b7f4e487b7100000000000000000000000000000000000000000000000000000000600052601160045260246000fd5b600061061782610431565b915061062283610431565b9250827fffffffffffffffffffffffffffffffffffffffffffffffffffffffffffffffff03821115610657576106566105dd565b5b828201905092915050565b6000604082019050610677600083018561043b565b610684602083018461043b565b939250505056fea264697066735822122018b62ffd4fefcf205549f9b0b88cf58dc308322e0c48217e5b49a6d5a406a06964736f6c634300080a0033",
  "linkReferences": {},
  "deployedLinkReferences": {}
}